{
  "contractName": "RGB",
  "abi": [
    {
      "inputs": [],
      "payable": false,
      "stateMutability": "nonpayable",
      "type": "constructor"
    },
    {
      "anonymous": false,
      "inputs": [
        {
          "indexed": true,
          "internalType": "address",
          "name": "owner",
          "type": "address"
        },
        {
          "indexed": true,
          "internalType": "address",
          "name": "approved",
          "type": "address"
        },
        {
          "indexed": true,
          "internalType": "uint256",
          "name": "tokenId",
          "type": "uint256"
        }
      ],
      "name": "Approval",
      "type": "event"
    },
    {
      "anonymous": false,
      "inputs": [
        {
          "indexed": true,
          "internalType": "address",
          "name": "owner",
          "type": "address"
        },
        {
          "indexed": true,
          "internalType": "address",
          "name": "operator",
          "type": "address"
        },
        {
          "indexed": false,
          "internalType": "bool",
          "name": "approved",
          "type": "bool"
        }
      ],
      "name": "ApprovalForAll",
      "type": "event"
    },
    {
      "anonymous": false,
      "inputs": [
        {
          "indexed": true,
          "internalType": "address",
          "name": "from",
          "type": "address"
        },
        {
          "indexed": true,
          "internalType": "address",
          "name": "to",
          "type": "address"
        },
        {
          "indexed": true,
          "internalType": "uint256",
          "name": "tokenId",
          "type": "uint256"
        }
      ],
      "name": "Transfer",
      "type": "event"
    },
    {
      "constant": true,
      "inputs": [],
      "name": "MATH",
      "outputs": [
        {
          "internalType": "contract IERC721",
          "name": "",
          "type": "address"
        }
      ],
      "payable": false,
      "stateMutability": "view",
      "type": "function"
    },
    {
      "constant": false,
      "inputs": [
        {
          "internalType": "address",
          "name": "to",
          "type": "address"
        },
        {
          "internalType": "uint256",
          "name": "tokenId",
          "type": "uint256"
        }
      ],
      "name": "approve",
      "outputs": [],
      "payable": false,
      "stateMutability": "nonpayable",
      "type": "function"
    },
    {
      "constant": true,
      "inputs": [
        {
          "internalType": "address",
          "name": "owner",
          "type": "address"
        }
      ],
      "name": "balanceOf",
      "outputs": [
        {
          "internalType": "uint256",
          "name": "",
          "type": "uint256"
        }
      ],
      "payable": false,
      "stateMutability": "view",
      "type": "function"
    },
    {
      "constant": true,
      "inputs": [
        {
          "internalType": "uint256",
          "name": "tokenId",
          "type": "uint256"
        }
      ],
      "name": "getApproved",
      "outputs": [
        {
          "internalType": "address",
          "name": "",
          "type": "address"
        }
      ],
      "payable": false,
      "stateMutability": "view",
      "type": "function"
    },
    {
      "constant": true,
      "inputs": [
        {
          "internalType": "address",
          "name": "owner",
          "type": "address"
        },
        {
          "internalType": "address",
          "name": "operator",
          "type": "address"
        }
      ],
      "name": "isApprovedForAll",
      "outputs": [
        {
          "internalType": "bool",
          "name": "",
          "type": "bool"
        }
      ],
      "payable": false,
      "stateMutability": "view",
      "type": "function"
    },
    {
      "constant": true,
      "inputs": [],
      "name": "name",
      "outputs": [
        {
          "internalType": "string",
          "name": "",
          "type": "string"
        }
      ],
      "payable": false,
      "stateMutability": "view",
      "type": "function"
    },
    {
      "constant": true,
      "inputs": [
        {
          "internalType": "uint256",
          "name": "tokenId",
          "type": "uint256"
        }
      ],
      "name": "ownerOf",
      "outputs": [
        {
          "internalType": "address",
          "name": "",
          "type": "address"
        }
      ],
      "payable": false,
      "stateMutability": "view",
      "type": "function"
    },
    {
      "constant": false,
      "inputs": [
        {
          "internalType": "address",
          "name": "from",
          "type": "address"
        },
        {
          "internalType": "address",
          "name": "to",
          "type": "address"
        },
        {
          "internalType": "uint256",
          "name": "tokenId",
          "type": "uint256"
        }
      ],
      "name": "safeTransferFrom",
      "outputs": [],
      "payable": false,
      "stateMutability": "nonpayable",
      "type": "function"
    },
    {
      "constant": false,
      "inputs": [
        {
          "internalType": "address",
          "name": "from",
          "type": "address"
        },
        {
          "internalType": "address",
          "name": "to",
          "type": "address"
        },
        {
          "internalType": "uint256",
          "name": "tokenId",
          "type": "uint256"
        },
        {
          "internalType": "bytes",
          "name": "_data",
          "type": "bytes"
        }
      ],
      "name": "safeTransferFrom",
      "outputs": [],
      "payable": false,
      "stateMutability": "nonpayable",
      "type": "function"
    },
    {
      "constant": false,
      "inputs": [
        {
          "internalType": "address",
          "name": "to",
          "type": "address"
        },
        {
          "internalType": "bool",
          "name": "approved",
          "type": "bool"
        }
      ],
      "name": "setApprovalForAll",
      "outputs": [],
      "payable": false,
      "stateMutability": "nonpayable",
      "type": "function"
    },
    {
      "constant": true,
      "inputs": [
        {
          "internalType": "bytes4",
          "name": "interfaceId",
          "type": "bytes4"
        }
      ],
      "name": "supportsInterface",
      "outputs": [
        {
          "internalType": "bool",
          "name": "",
          "type": "bool"
        }
      ],
      "payable": false,
      "stateMutability": "view",
      "type": "function"
    },
    {
      "constant": true,
      "inputs": [],
      "name": "symbol",
      "outputs": [
        {
          "internalType": "string",
          "name": "",
          "type": "string"
        }
      ],
      "payable": false,
      "stateMutability": "view",
      "type": "function"
    },
    {
      "constant": true,
      "inputs": [
        {
          "internalType": "uint256",
          "name": "index",
          "type": "uint256"
        }
      ],
      "name": "tokenByIndex",
      "outputs": [
        {
          "internalType": "uint256",
          "name": "",
          "type": "uint256"
        }
      ],
      "payable": false,
      "stateMutability": "view",
      "type": "function"
    },
    {
      "constant": true,
      "inputs": [
        {
          "internalType": "address",
          "name": "owner",
          "type": "address"
        },
        {
          "internalType": "uint256",
          "name": "index",
          "type": "uint256"
        }
      ],
      "name": "tokenOfOwnerByIndex",
      "outputs": [
        {
          "internalType": "uint256",
          "name": "",
          "type": "uint256"
        }
      ],
      "payable": false,
      "stateMutability": "view",
      "type": "function"
    },
    {
      "constant": true,
      "inputs": [
        {
          "internalType": "uint256",
          "name": "tokenId",
          "type": "uint256"
        }
      ],
      "name": "tokenURI",
      "outputs": [
        {
          "internalType": "string",
          "name": "",
          "type": "string"
        }
      ],
      "payable": false,
      "stateMutability": "view",
      "type": "function"
    },
    {
      "constant": true,
      "inputs": [],
      "name": "totalSupply",
      "outputs": [
        {
          "internalType": "uint256",
          "name": "",
          "type": "uint256"
        }
      ],
      "payable": false,
      "stateMutability": "view",
      "type": "function"
    },
    {
      "constant": false,
      "inputs": [
        {
          "internalType": "address",
          "name": "from",
          "type": "address"
        },
        {
          "internalType": "address",
          "name": "to",
          "type": "address"
        },
        {
          "internalType": "uint256",
          "name": "tokenId",
          "type": "uint256"
        }
      ],
      "name": "transferFrom",
      "outputs": [],
      "payable": false,
      "stateMutability": "nonpayable",
      "type": "function"
    },
    {
      "constant": false,
      "inputs": [
        {
          "internalType": "uint256",
          "name": "tokenIdR",
          "type": "uint256"
        },
        {
          "internalType": "uint256",
          "name": "tokenIdG",
          "type": "uint256"
        },
        {
          "internalType": "uint256",
          "name": "tokenIdB",
          "type": "uint256"
        }
      ],
      "name": "add",
      "outputs": [],
      "payable": true,
      "stateMutability": "payable",
      "type": "function"
    },
    {
      "constant": true,
      "inputs": [
        {
          "internalType": "uint256",
          "name": "id",
          "type": "uint256"
        }
      ],
      "name": "get",
      "outputs": [
        {
          "internalType": "uint256",
          "name": "r",
          "type": "uint256"
        },
        {
          "internalType": "uint256",
          "name": "g",
          "type": "uint256"
        },
        {
          "internalType": "uint256",
          "name": "b",
          "type": "uint256"
        }
      ],
      "payable": false,
      "stateMutability": "view",
      "type": "function"
    }
  ],
  "bytecode": "0x60806040523480156200001157600080fd5b506040518060400160405280600381526020017f52474200000000000000000000000000000000000000000000000000000000008152506040518060400160405280600381526020017f52474200000000000000000000000000000000000000000000000000000000008152508181620000986301ffc9a760e01b6200011c60201b60201c565b620000b06380ac58cd60e01b6200011c60201b60201c565b620000c863780e9d6360e01b6200011c60201b60201c565b8160099080519060200190620000e092919062000225565b5080600a9080519060200190620000f992919062000225565b5062000112635b5e139f60e01b6200011c60201b60201c565b50505050620002d4565b63ffffffff60e01b817bffffffffffffffffffffffffffffffffffffffffffffffffffffffff19161415620001b9576040517f08c379a000000000000000000000000000000000000000000000000000000000815260040180806020018281038252601c8152602001807f4552433136353a20696e76616c696420696e746572666163652069640000000081525060200191505060405180910390fd5b6001600080837bffffffffffffffffffffffffffffffffffffffffffffffffffffffff19167bffffffffffffffffffffffffffffffffffffffffffffffffffffffff1916815260200190815260200160002060006101000a81548160ff02191690831515021790555050565b828054600181600116156101000203166002900490600052602060002090601f016020900481019282601f106200026857805160ff191683800117855562000299565b8280016001018555821562000299579182015b82811115620002985782518255916020019190600101906200027b565b5b509050620002a89190620002ac565b5090565b620002d191905b80821115620002cd576000816000905550600101620002b3565b5090565b90565b612bc180620002e46000396000f3fe6080604052600436106101145760003560e01c8063505fb46c116100a0578063a22cb46511610064578063a22cb465146106df578063b88d4fde1461073c578063c87b56dd1461084e578063e985e9c514610902578063ed6c15461461098b57610114565b8063505fb46c146104d05780636352211e1461051257806370a082311461058d5780639507d39a146105f257806395d89b411461064f57610114565b806318160ddd116100e757806318160ddd146102f157806323b872dd1461031c5780632f745c591461039757806342842e0e146104065780634f6ccce71461048157610114565b806301ffc9a71461011957806306fdde031461018b578063081812fc1461021b578063095ea7b314610296575b600080fd5b34801561012557600080fd5b506101716004803603602081101561013c57600080fd5b8101908080357bffffffffffffffffffffffffffffffffffffffffffffffffffffffff191690602001909291905050506109e2565b604051808215151515815260200191505060405180910390f35b34801561019757600080fd5b506101a0610a49565b6040518080602001828103825283818151815260200191508051906020019080838360005b838110156101e05780820151818401526020810190506101c5565b50505050905090810190601f16801561020d5780820380516001836020036101000a031916815260200191505b509250505060405180910390f35b34801561022757600080fd5b506102546004803603602081101561023e57600080fd5b8101908080359060200190929190505050610aeb565b604051808273ffffffffffffffffffffffffffffffffffffffff1673ffffffffffffffffffffffffffffffffffffffff16815260200191505060405180910390f35b3480156102a257600080fd5b506102ef600480360360408110156102b957600080fd5b81019080803573ffffffffffffffffffffffffffffffffffffffff16906020019092919080359060200190929190505050610b86565b005b3480156102fd57600080fd5b50610306610d6d565b6040518082815260200191505060405180910390f35b34801561032857600080fd5b506103956004803603606081101561033f57600080fd5b81019080803573ffffffffffffffffffffffffffffffffffffffff169060200190929190803573ffffffffffffffffffffffffffffffffffffffff16906020019092919080359060200190929190505050610d7a565b005b3480156103a357600080fd5b506103f0600480360360408110156103ba57600080fd5b81019080803573ffffffffffffffffffffffffffffffffffffffff16906020019092919080359060200190929190505050610df0565b6040518082815260200191505060405180910390f35b34801561041257600080fd5b5061047f6004803603606081101561042957600080fd5b81019080803573ffffffffffffffffffffffffffffffffffffffff169060200190929190803573ffffffffffffffffffffffffffffffffffffffff16906020019092919080359060200190929190505050610eaf565b005b34801561048d57600080fd5b506104ba600480360360208110156104a457600080fd5b8101908080359060200190929190505050610ecf565b6040518082815260200191505060405180910390f35b610510600480360360608110156104e657600080fd5b81019080803590602001909291908035906020019092919080359060200190929190505050610f4f565b005b34801561051e57600080fd5b5061054b6004803603602081101561053557600080fd5b8101908080359060200190929190505050611339565b604051808273ffffffffffffffffffffffffffffffffffffffff1673ffffffffffffffffffffffffffffffffffffffff16815260200191505060405180910390f35b34801561059957600080fd5b506105dc600480360360208110156105b057600080fd5b81019080803573ffffffffffffffffffffffffffffffffffffffff169060200190929190505050611401565b6040518082815260200191505060405180910390f35b3480156105fe57600080fd5b5061062b6004803603602081101561061557600080fd5b81019080803590602001909291905050506114d6565b60405180848152602001838152602001828152602001935050505060405180910390f35b34801561065b57600080fd5b5061066461153e565b6040518080602001828103825283818151815260200191508051906020019080838360005b838110156106a4578082015181840152602081019050610689565b50505050905090810190601f1680156106d15780820380516001836020036101000a031916815260200191505b509250505060405180910390f35b3480156106eb57600080fd5b5061073a6004803603604081101561070257600080fd5b81019080803573ffffffffffffffffffffffffffffffffffffffff1690602001909291908035151590602001909291905050506115e0565b005b34801561074857600080fd5b5061084c6004803603608081101561075f57600080fd5b81019080803573ffffffffffffffffffffffffffffffffffffffff169060200190929190803573ffffffffffffffffffffffffffffffffffffffff16906020019092919080359060200190929190803590602001906401000000008111156107c657600080fd5b8201836020820111156107d857600080fd5b803590602001918460018302840111640100000000831117156107fa57600080fd5b91908080601f016020809104026020016040519081016040528093929190818152602001838380828437600081840152601f19601f820116905080830192505050505050509192919290505050611798565b005b34801561085a57600080fd5b506108876004803603602081101561087157600080fd5b8101908080359060200190929190505050611810565b6040518080602001828103825283818151815260200191508051906020019080838360005b838110156108c75780820151818401526020810190506108ac565b50505050905090810190601f1680156108f45780820380516001836020036101000a031916815260200191505b509250505060405180910390f35b34801561090e57600080fd5b506109716004803603604081101561092557600080fd5b81019080803573ffffffffffffffffffffffffffffffffffffffff169060200190929190803573ffffffffffffffffffffffffffffffffffffffff169060200190929190505050611923565b604051808215151515815260200191505060405180910390f35b34801561099757600080fd5b506109a06119b7565b604051808273ffffffffffffffffffffffffffffffffffffffff1673ffffffffffffffffffffffffffffffffffffffff16815260200191505060405180910390f35b6000806000837bffffffffffffffffffffffffffffffffffffffffffffffffffffffff19167bffffffffffffffffffffffffffffffffffffffffffffffffffffffff1916815260200190815260200160002060009054906101000a900460ff169050919050565b606060098054600181600116156101000203166002900480601f016020809104026020016040519081016040528092919081815260200182805460018160011615610100020316600290048015610ae15780601f10610ab657610100808354040283529160200191610ae1565b820191906000526020600020905b815481529060010190602001808311610ac457829003601f168201915b5050505050905090565b6000610af6826119cf565b610b4b576040517f08c379a000000000000000000000000000000000000000000000000000000000815260040180806020018281038252602c815260200180612a8b602c913960400191505060405180910390fd5b6002600083815260200190815260200160002060009054906101000a900473ffffffffffffffffffffffffffffffffffffffff169050919050565b6000610b9182611339565b90508073ffffffffffffffffffffffffffffffffffffffff168373ffffffffffffffffffffffffffffffffffffffff161415610c18576040517f08c379a0000000000000000000000000000000000000000000000000000000008152600401808060200182810382526021815260200180612b0f6021913960400191505060405180910390fd5b8073ffffffffffffffffffffffffffffffffffffffff16610c37611a41565b73ffffffffffffffffffffffffffffffffffffffff161480610c665750610c6581610c60611a41565b611923565b5b610cbb576040517f08c379a0000000000000000000000000000000000000000000000000000000008152600401808060200182810382526038815260200180612a006038913960400191505060405180910390fd5b826002600084815260200190815260200160002060006101000a81548173ffffffffffffffffffffffffffffffffffffffff021916908373ffffffffffffffffffffffffffffffffffffffff160217905550818373ffffffffffffffffffffffffffffffffffffffff168273ffffffffffffffffffffffffffffffffffffffff167f8c5be1e5ebec7d5bd14f71427d1e84f3dd0314c0f7b2291e5b200ac8c7c3b92560405160405180910390a4505050565b6000600780549050905090565b610d8b610d85611a41565b82611a49565b610de0576040517f08c379a0000000000000000000000000000000000000000000000000000000008152600401808060200182810382526031815260200180612b306031913960400191505060405180910390fd5b610deb838383611b3d565b505050565b6000610dfb83611401565b8210610e52576040517f08c379a000000000000000000000000000000000000000000000000000000000815260040180806020018281038252602b815260200180612919602b913960400191505060405180910390fd5b600560008473ffffffffffffffffffffffffffffffffffffffff1673ffffffffffffffffffffffffffffffffffffffff1681526020019081526020016000208281548110610e9c57fe5b9060005260206000200154905092915050565b610eca83838360405180602001604052806000815250611798565b505050565b6000610ed9610d6d565b8210610f30576040517f08c379a000000000000000000000000000000000000000000000000000000000815260040180806020018281038252602c815260200180612b61602c913960400191505060405180910390fd5b60078281548110610f3d57fe5b90600052602060002001549050919050565b666a94d74f4300003414610f6257600080fd5b6000600c60008581526020019081526020016000205414610f8257600080fd5b6000600d60008481526020019081526020016000205414610fa257600080fd5b6000600e60008381526020019081526020016000205414610fc257600080fd5b60006001610fce610d6d565b01600e6000848152602001908152602001600020819055600d6000858152602001908152602001600020819055600c60008681526020019081526020016000208190559050604051806060016040528085815260200184815260200183815250600f600083815260200190815260200160002060008201518160000155602082015181600101556040820151816002015590505061106c3382611b61565b611159662386f26fc10000611135736b4fccdd888bb6fd3934a9e49ef64dfd2c0d8e6d73ffffffffffffffffffffffffffffffffffffffff16636352211e886040518263ffffffff1660e01b81526004018082815260200191505060206040518083038186803b1580156110df57600080fd5b505afa1580156110f3573d6000803e3d6000fd5b505050506040513d602081101561110957600080fd5b810190808051906020019092919050505073ffffffffffffffffffffffffffffffffffffffff16611b82565b73ffffffffffffffffffffffffffffffffffffffff16611b8c90919063ffffffff16565b611246662386f26fc10000611222736b4fccdd888bb6fd3934a9e49ef64dfd2c0d8e6d73ffffffffffffffffffffffffffffffffffffffff16636352211e876040518263ffffffff1660e01b81526004018082815260200191505060206040518083038186803b1580156111cc57600080fd5b505afa1580156111e0573d6000803e3d6000fd5b505050506040513d60208110156111f657600080fd5b810190808051906020019092919050505073ffffffffffffffffffffffffffffffffffffffff16611b82565b73ffffffffffffffffffffffffffffffffffffffff16611b8c90919063ffffffff16565b611333662386f26fc1000061130f736b4fccdd888bb6fd3934a9e49ef64dfd2c0d8e6d73ffffffffffffffffffffffffffffffffffffffff16636352211e866040518263ffffffff1660e01b81526004018082815260200191505060206040518083038186803b1580156112b957600080fd5b505afa1580156112cd573d6000803e3d6000fd5b505050506040513d60208110156112e357600080fd5b810190808051906020019092919050505073ffffffffffffffffffffffffffffffffffffffff16611b82565b73ffffffffffffffffffffffffffffffffffffffff16611b8c90919063ffffffff16565b50505050565b6000806001600084815260200190815260200160002060009054906101000a900473ffffffffffffffffffffffffffffffffffffffff169050600073ffffffffffffffffffffffffffffffffffffffff168173ffffffffffffffffffffffffffffffffffffffff1614156113f8576040517f08c379a0000000000000000000000000000000000000000000000000000000008152600401808060200182810382526029815260200180612a626029913960400191505060405180910390fd5b80915050919050565b60008073ffffffffffffffffffffffffffffffffffffffff168273ffffffffffffffffffffffffffffffffffffffff161415611488576040517f08c379a000000000000000000000000000000000000000000000000000000000815260040180806020018281038252602a815260200180612a38602a913960400191505060405180910390fd5b6114cf600360008473ffffffffffffffffffffffffffffffffffffffff1673ffffffffffffffffffffffffffffffffffffffff168152602001908152602001600020611cc6565b9050919050565b60008060006114e36128a6565b600f600086815260200190815260200160002060405180606001604052908160008201548152602001600182015481526020016002820154815250509050806000015193508060200151925080604001519150509193909250565b6060600a8054600181600116156101000203166002900480601f0160208091040260200160405190810160405280929190818152602001828054600181600116156101000203166002900480156115d65780601f106115ab576101008083540402835291602001916115d6565b820191906000526020600020905b8154815290600101906020018083116115b957829003601f168201915b5050505050905090565b6115e8611a41565b73ffffffffffffffffffffffffffffffffffffffff168273ffffffffffffffffffffffffffffffffffffffff161415611689576040517f08c379a00000000000000000000000000000000000000000000000000000000081526004018080602001828103825260198152602001807f4552433732313a20617070726f766520746f2063616c6c65720000000000000081525060200191505060405180910390fd5b8060046000611696611a41565b73ffffffffffffffffffffffffffffffffffffffff1673ffffffffffffffffffffffffffffffffffffffff16815260200190815260200160002060008473ffffffffffffffffffffffffffffffffffffffff1673ffffffffffffffffffffffffffffffffffffffff16815260200190815260200160002060006101000a81548160ff0219169083151502179055508173ffffffffffffffffffffffffffffffffffffffff16611743611a41565b73ffffffffffffffffffffffffffffffffffffffff167f17307eab39ab6107e8899845ad3d59bd9653f200f220920489ca2b5937696c3183604051808215151515815260200191505060405180910390a35050565b6117a96117a3611a41565b83611a49565b6117fe576040517f08c379a0000000000000000000000000000000000000000000000000000000008152600401808060200182810382526031815260200180612b306031913960400191505060405180910390fd5b61180a84848484611cd4565b50505050565b606061181b826119cf565b611870576040517f08c379a000000000000000000000000000000000000000000000000000000000815260040180806020018281038252602f815260200180612ae0602f913960400191505060405180910390fd5b600b60008381526020019081526020016000208054600181600116156101000203166002900480601f0160208091040260200160405190810160405280929190818152602001828054600181600116156101000203166002900480156119175780601f106118ec57610100808354040283529160200191611917565b820191906000526020600020905b8154815290600101906020018083116118fa57829003601f168201915b50505050509050919050565b6000600460008473ffffffffffffffffffffffffffffffffffffffff1673ffffffffffffffffffffffffffffffffffffffff16815260200190815260200160002060008373ffffffffffffffffffffffffffffffffffffffff1673ffffffffffffffffffffffffffffffffffffffff16815260200190815260200160002060009054906101000a900460ff16905092915050565b736b4fccdd888bb6fd3934a9e49ef64dfd2c0d8e6d81565b6000806001600084815260200190815260200160002060009054906101000a900473ffffffffffffffffffffffffffffffffffffffff169050600073ffffffffffffffffffffffffffffffffffffffff168173ffffffffffffffffffffffffffffffffffffffff161415915050919050565b600033905090565b6000611a54826119cf565b611aa9576040517f08c379a000000000000000000000000000000000000000000000000000000000815260040180806020018281038252602c8152602001806129d4602c913960400191505060405180910390fd5b6000611ab483611339565b90508073ffffffffffffffffffffffffffffffffffffffff168473ffffffffffffffffffffffffffffffffffffffff161480611b2357508373ffffffffffffffffffffffffffffffffffffffff16611b0b84610aeb565b73ffffffffffffffffffffffffffffffffffffffff16145b80611b345750611b338185611923565b5b91505092915050565b611b48838383611d46565b611b528382611fa1565b611b5c828261213f565b505050565b611b6b8282612206565b611b75828261213f565b611b7e8161241e565b5050565b6000819050919050565b80471015611c02576040517f08c379a000000000000000000000000000000000000000000000000000000000815260040180806020018281038252601d8152602001807f416464726573733a20696e73756666696369656e742062616c616e636500000081525060200191505060405180910390fd5b60008273ffffffffffffffffffffffffffffffffffffffff168260405180600001905060006040518083038185875af1925050503d8060008114611c62576040519150601f19603f3d011682016040523d82523d6000602084013e611c67565b606091505b5050905080611cc1576040517f08c379a000000000000000000000000000000000000000000000000000000000815260040180806020018281038252603a81526020018061299a603a913960400191505060405180910390fd5b505050565b600081600001549050919050565b611cdf848484611b3d565b611ceb8484848461246a565b611d40576040517f08c379a00000000000000000000000000000000000000000000000000000000081526004018080602001828103825260328152602001806129446032913960400191505060405180910390fd5b50505050565b8273ffffffffffffffffffffffffffffffffffffffff16611d6682611339565b73ffffffffffffffffffffffffffffffffffffffff1614611dd2576040517f08c379a0000000000000000000000000000000000000000000000000000000008152600401808060200182810382526029815260200180612ab76029913960400191505060405180910390fd5b600073ffffffffffffffffffffffffffffffffffffffff168273ffffffffffffffffffffffffffffffffffffffff161415611e58576040517f08c379a00000000000000000000000000000000000000000000000000000000081526004018080602001828103825260248152602001806129766024913960400191505060405180910390fd5b611e618161265a565b611ea8600360008573ffffffffffffffffffffffffffffffffffffffff1673ffffffffffffffffffffffffffffffffffffffff168152602001908152602001600020612718565b611eef600360008473ffffffffffffffffffffffffffffffffffffffff1673ffffffffffffffffffffffffffffffffffffffff16815260200190815260200160002061273b565b816001600083815260200190815260200160002060006101000a81548173ffffffffffffffffffffffffffffffffffffffff021916908373ffffffffffffffffffffffffffffffffffffffff160217905550808273ffffffffffffffffffffffffffffffffffffffff168473ffffffffffffffffffffffffffffffffffffffff167fddf252ad1be2c89b69c2b068fc378daa952ba7f163c4a11628f55a4df523b3ef60405160405180910390a4505050565b6000611ff96001600560008673ffffffffffffffffffffffffffffffffffffffff1673ffffffffffffffffffffffffffffffffffffffff1681526020019081526020016000208054905061275190919063ffffffff16565b90506000600660008481526020019081526020016000205490508181146120e6576000600560008673ffffffffffffffffffffffffffffffffffffffff1673ffffffffffffffffffffffffffffffffffffffff168152602001908152602001600020838154811061206657fe5b9060005260206000200154905080600560008773ffffffffffffffffffffffffffffffffffffffff1673ffffffffffffffffffffffffffffffffffffffff16815260200190815260200160002083815481106120be57fe5b9060005260206000200181905550816006600083815260200190815260200160002081905550505b600560008573ffffffffffffffffffffffffffffffffffffffff1673ffffffffffffffffffffffffffffffffffffffff16815260200190815260200160002080548091906001900361213891906128c7565b5050505050565b600560008373ffffffffffffffffffffffffffffffffffffffff1673ffffffffffffffffffffffffffffffffffffffff168152602001908152602001600020805490506006600083815260200190815260200160002081905550600560008373ffffffffffffffffffffffffffffffffffffffff1673ffffffffffffffffffffffffffffffffffffffff1681526020019081526020016000208190806001815401808255809150509060018203906000526020600020016000909192909190915055505050565b600073ffffffffffffffffffffffffffffffffffffffff168273ffffffffffffffffffffffffffffffffffffffff1614156122a9576040517f08c379a00000000000000000000000000000000000000000000000000000000081526004018080602001828103825260208152602001807f4552433732313a206d696e7420746f20746865207a65726f206164647265737381525060200191505060405180910390fd5b6122b2816119cf565b15612325576040517f08c379a000000000000000000000000000000000000000000000000000000000815260040180806020018281038252601c8152602001807f4552433732313a20746f6b656e20616c7265616479206d696e7465640000000081525060200191505060405180910390fd5b816001600083815260200190815260200160002060006101000a81548173ffffffffffffffffffffffffffffffffffffffff021916908373ffffffffffffffffffffffffffffffffffffffff1602179055506123be600360008473ffffffffffffffffffffffffffffffffffffffff1673ffffffffffffffffffffffffffffffffffffffff16815260200190815260200160002061273b565b808273ffffffffffffffffffffffffffffffffffffffff16600073ffffffffffffffffffffffffffffffffffffffff167fddf252ad1be2c89b69c2b068fc378daa952ba7f163c4a11628f55a4df523b3ef60405160405180910390a45050565b6007805490506008600083815260200190815260200160002081905550600781908060018154018082558091505090600182039060005260206000200160009091929091909150555050565b600061248b8473ffffffffffffffffffffffffffffffffffffffff1661279b565b6124985760019050612652565b60008473ffffffffffffffffffffffffffffffffffffffff1663150b7a026124be611a41565b8887876040518563ffffffff1660e01b8152600401808573ffffffffffffffffffffffffffffffffffffffff1673ffffffffffffffffffffffffffffffffffffffff1681526020018473ffffffffffffffffffffffffffffffffffffffff1673ffffffffffffffffffffffffffffffffffffffff16815260200183815260200180602001828103825283818151815260200191508051906020019080838360005b8381101561257a57808201518184015260208101905061255f565b50505050905090810190601f1680156125a75780820380516001836020036101000a031916815260200191505b5095505050505050602060405180830381600087803b1580156125c957600080fd5b505af11580156125dd573d6000803e3d6000fd5b505050506040513d60208110156125f357600080fd5b8101908080519060200190929190505050905063150b7a0260e01b7bffffffffffffffffffffffffffffffffffffffffffffffffffffffff1916817bffffffffffffffffffffffffffffffffffffffffffffffffffffffff1916149150505b949350505050565b600073ffffffffffffffffffffffffffffffffffffffff166002600083815260200190815260200160002060009054906101000a900473ffffffffffffffffffffffffffffffffffffffff1673ffffffffffffffffffffffffffffffffffffffff16146127155760006002600083815260200190815260200160002060006101000a81548173ffffffffffffffffffffffffffffffffffffffff021916908373ffffffffffffffffffffffffffffffffffffffff1602179055505b50565b6127306001826000015461275190919063ffffffff16565b816000018190555050565b6001816000016000828254019250508190555050565b600061279383836040518060400160405280601e81526020017f536166654d6174683a207375627472616374696f6e206f766572666c6f7700008152506127e6565b905092915050565b60008060007fc5d2460186f7233c927e7db2dcc703c0e500b653ca82273b7bfad8045d85a47060001b9050833f91506000801b82141580156127dd5750808214155b92505050919050565b6000838311158290612893576040517f08c379a00000000000000000000000000000000000000000000000000000000081526004018080602001828103825283818151815260200191508051906020019080838360005b8381101561285857808201518184015260208101905061283d565b50505050905090810190601f1680156128855780820380516001836020036101000a031916815260200191505b509250505060405180910390fd5b5060008385039050809150509392505050565b60405180606001604052806000815260200160008152602001600081525090565b8154818355818111156128ee578183600052602060002091820191016128ed91906128f3565b5b505050565b61291591905b808211156129115760008160009055506001016128f9565b5090565b9056fe455243373231456e756d657261626c653a206f776e657220696e646578206f7574206f6620626f756e64734552433732313a207472616e7366657220746f206e6f6e20455243373231526563656976657220696d706c656d656e7465724552433732313a207472616e7366657220746f20746865207a65726f2061646472657373416464726573733a20756e61626c6520746f2073656e642076616c75652c20726563697069656e74206d617920686176652072657665727465644552433732313a206f70657261746f7220717565727920666f72206e6f6e6578697374656e7420746f6b656e4552433732313a20617070726f76652063616c6c6572206973206e6f74206f776e6572206e6f7220617070726f76656420666f7220616c6c4552433732313a2062616c616e636520717565727920666f7220746865207a65726f20616464726573734552433732313a206f776e657220717565727920666f72206e6f6e6578697374656e7420746f6b656e4552433732313a20617070726f76656420717565727920666f72206e6f6e6578697374656e7420746f6b656e4552433732313a207472616e73666572206f6620746f6b656e2074686174206973206e6f74206f776e4552433732314d657461646174613a2055524920717565727920666f72206e6f6e6578697374656e7420746f6b656e4552433732313a20617070726f76616c20746f2063757272656e74206f776e65724552433732313a207472616e736665722063616c6c6572206973206e6f74206f776e6572206e6f7220617070726f766564455243373231456e756d657261626c653a20676c6f62616c20696e646578206f7574206f6620626f756e6473a265627a7a7231582003d02753f1b0f859b0df5605bb859abb507f826986b101acb9534be41ac9652a64736f6c63430005100032",
  "source": "pragma solidity ^0.5.0;\r\n\r\nimport \"@openzeppelin/contracts/token/ERC721/ERC721Full.sol\";\r\n\r\ncontract RGB is ERC721Full {\r\n    using Address for address payable;\r\n\r\n    IERC721 public constant MATH = IERC721(address(0x6B4fccdd888Bb6fD3934A9e49eF64dfd2c0D8e6D));\r\n\r\n    struct Metadata {\r\n        uint r;\r\n        uint g;\r\n        uint b;\r\n    }\r\n\r\n    mapping(uint => uint) r_to_id;\r\n    mapping(uint => uint) g_to_id;\r\n    mapping(uint => uint) b_to_id;\r\n    mapping(uint => Metadata) id_to_rgb;\r\n\r\n    constructor() ERC721Full(\"RGB\", \"RGB\") public { }\r\n\r\n    function add(uint tokenIdR, uint tokenIdG, uint tokenIdB) public payable {\r\n        require(msg.value == 30 finney);\r\n        require(r_to_id[tokenIdR] == 0);\r\n        require(g_to_id[tokenIdG] == 0);\r\n        require(b_to_id[tokenIdB] == 0);\r\n        uint tokenId = r_to_id[tokenIdR] = g_to_id[tokenIdG] = b_to_id[tokenIdB] = totalSupply() + 1;\r\n        id_to_rgb[tokenId] = Metadata(tokenIdR, tokenIdG, tokenIdB);\r\n        _mint(msg.sender, tokenId);\r\n        MATH.ownerOf(tokenIdR).toPayable().sendValue(10 finney);\r\n        MATH.ownerOf(tokenIdG).toPayable().sendValue(10 finney);\r\n        MATH.ownerOf(tokenIdB).toPayable().sendValue(10 finney);\r\n    }\r\n\r\n    function get(uint id) external view returns (uint r, uint g, uint b) {\r\n        Metadata memory rgb = id_to_rgb[id];\r\n        r = rgb.r;\r\n        g = rgb.g;\r\n        b = rgb.b;\r\n    }\r\n}",
  "sourcePath": "C:/Users/alexh/Source/RGB/contracts/RGB.sol",
  "compiler": {
    "name": "solc",
    "version": "0.5.16+commit.9c3226ce.Emscripten.clang"
  },
  "schemaVersion": "3.0.21",
  "updatedAt": "2020-01-20T03:09:54.315Z",
  "devdoc": {
    "methods": {
      "approve(address,uint256)": {
        "details": "Approves another address to transfer the given token ID The zero address indicates there is no approved address. There can only be one approved address per token at a given time. Can only be called by the token owner or an approved operator.",
        "params": {
          "to": "address to be approved for the given token ID",
          "tokenId": "uint256 ID of the token to be approved"
        }
      },
      "balanceOf(address)": {
        "details": "Gets the balance of the specified address.",
        "params": {
          "owner": "address to query the balance of"
        },
        "return": "uint256 representing the amount owned by the passed address"
      },
      "getApproved(uint256)": {
        "details": "Gets the approved address for a token ID, or zero if no address set Reverts if the token ID does not exist.",
        "params": {
          "tokenId": "uint256 ID of the token to query the approval of"
        },
        "return": "address currently approved for the given token ID"
      },
      "isApprovedForAll(address,address)": {
        "details": "Tells whether an operator is approved by a given owner.",
        "params": {
          "operator": "operator address which you want to query the approval of",
          "owner": "owner address which you want to query the approval of"
        },
        "return": "bool whether the given operator is approved by the given owner"
      },
      "name()": {
        "details": "Gets the token name.",
        "return": "string representing the token name"
      },
      "ownerOf(uint256)": {
        "details": "Gets the owner of the specified token ID.",
        "params": {
          "tokenId": "uint256 ID of the token to query the owner of"
        },
        "return": "address currently marked as the owner of the given token ID"
      },
      "safeTransferFrom(address,address,uint256)": {
        "details": "Safely transfers the ownership of a given token ID to another address If the target address is a contract, it must implement {IERC721Receiver-onERC721Received}, which is called upon a safe transfer, and return the magic value `bytes4(keccak256(\"onERC721Received(address,address,uint256,bytes)\"))`; otherwise, the transfer is reverted. Requires the msg.sender to be the owner, approved, or operator",
        "params": {
          "from": "current owner of the token",
          "to": "address to receive the ownership of the given token ID",
          "tokenId": "uint256 ID of the token to be transferred"
        }
      },
      "safeTransferFrom(address,address,uint256,bytes)": {
        "details": "Safely transfers the ownership of a given token ID to another address If the target address is a contract, it must implement {IERC721Receiver-onERC721Received}, which is called upon a safe transfer, and return the magic value `bytes4(keccak256(\"onERC721Received(address,address,uint256,bytes)\"))`; otherwise, the transfer is reverted. Requires the _msgSender() to be the owner, approved, or operator",
        "params": {
          "_data": "bytes data to send along with a safe transfer check",
          "from": "current owner of the token",
          "to": "address to receive the ownership of the given token ID",
          "tokenId": "uint256 ID of the token to be transferred"
        }
      },
      "setApprovalForAll(address,bool)": {
        "details": "Sets or unsets the approval of a given operator An operator is allowed to transfer all tokens of the sender on their behalf.",
        "params": {
          "approved": "representing the status of the approval to be set",
          "to": "operator address to set the approval"
        }
      },
      "supportsInterface(bytes4)": {
        "details": "See {IERC165-supportsInterface}.     * Time complexity O(1), guaranteed to always use less than 30 000 gas."
      },
      "symbol()": {
        "details": "Gets the token symbol.",
        "return": "string representing the token symbol"
      },
      "tokenByIndex(uint256)": {
        "details": "Gets the token ID at a given index of all the tokens in this contract Reverts if the index is greater or equal to the total number of tokens.",
        "params": {
          "index": "uint256 representing the index to be accessed of the tokens list"
        },
        "return": "uint256 token ID at the given index of the tokens list"
      },
      "tokenOfOwnerByIndex(address,uint256)": {
        "details": "Gets the token ID at a given index of the tokens list of the requested owner.",
        "params": {
          "index": "uint256 representing the index to be accessed of the requested tokens list",
          "owner": "address owning the tokens list to be accessed"
        },
        "return": "uint256 token ID at the given index of the tokens list owned by the requested address"
      },
      "tokenURI(uint256)": {
        "details": "Returns an URI for a given token ID. Throws if the token ID does not exist. May return an empty string.",
        "params": {
          "tokenId": "uint256 ID of the token to query"
        }
      },
      "totalSupply()": {
        "details": "Gets the total amount of tokens stored by the contract.",
        "return": "uint256 representing the total amount of tokens"
      },
      "transferFrom(address,address,uint256)": {
        "details": "Transfers the ownership of a given token ID to another address. Usage of this method is discouraged, use {safeTransferFrom} whenever possible. Requires the msg.sender to be the owner, approved, or operator.",
        "params": {
          "from": "current owner of the token",
          "to": "address to receive the ownership of the given token ID",
          "tokenId": "uint256 ID of the token to be transferred"
        }
      }
    }
  },
  "userdoc": {
    "methods": {}
  }
}