{
  "contractName": "TOON",
  "abi": [
    {
      "inputs": [],
      "payable": false,
      "stateMutability": "nonpayable",
      "type": "constructor"
    },
    {
      "anonymous": false,
      "inputs": [
        {
          "indexed": true,
          "internalType": "address",
          "name": "owner",
          "type": "address"
        },
        {
          "indexed": true,
          "internalType": "address",
          "name": "approved",
          "type": "address"
        },
        {
          "indexed": true,
          "internalType": "uint256",
          "name": "tokenId",
          "type": "uint256"
        }
      ],
      "name": "Approval",
      "type": "event"
    },
    {
      "anonymous": false,
      "inputs": [
        {
          "indexed": true,
          "internalType": "address",
          "name": "owner",
          "type": "address"
        },
        {
          "indexed": true,
          "internalType": "address",
          "name": "operator",
          "type": "address"
        },
        {
          "indexed": false,
          "internalType": "bool",
          "name": "approved",
          "type": "bool"
        }
      ],
      "name": "ApprovalForAll",
      "type": "event"
    },
    {
      "anonymous": false,
      "inputs": [
        {
          "indexed": true,
          "internalType": "address",
          "name": "from",
          "type": "address"
        },
        {
          "indexed": true,
          "internalType": "address",
          "name": "to",
          "type": "address"
        },
        {
          "indexed": true,
          "internalType": "uint256",
          "name": "tokenId",
          "type": "uint256"
        }
      ],
      "name": "Transfer",
      "type": "event"
    },
    {
      "constant": true,
      "inputs": [],
      "name": "FACE",
      "outputs": [
        {
          "internalType": "contract IERC721",
          "name": "",
          "type": "address"
        }
      ],
      "payable": false,
      "stateMutability": "view",
      "type": "function"
    },
    {
      "constant": true,
      "inputs": [],
      "name": "MATH",
      "outputs": [
        {
          "internalType": "contract IERC721",
          "name": "",
          "type": "address"
        }
      ],
      "payable": false,
      "stateMutability": "view",
      "type": "function"
    },
    {
      "constant": true,
      "inputs": [],
      "name": "RGB",
      "outputs": [
        {
          "internalType": "contract IERC721",
          "name": "",
          "type": "address"
        }
      ],
      "payable": false,
      "stateMutability": "view",
      "type": "function"
    },
    {
      "constant": true,
      "inputs": [],
      "name": "WORD",
      "outputs": [
        {
          "internalType": "contract IERC721",
          "name": "",
          "type": "address"
        }
      ],
      "payable": false,
      "stateMutability": "view",
      "type": "function"
    },
    {
      "constant": false,
      "inputs": [
        {
          "internalType": "address",
          "name": "to",
          "type": "address"
        },
        {
          "internalType": "uint256",
          "name": "tokenId",
          "type": "uint256"
        }
      ],
      "name": "approve",
      "outputs": [],
      "payable": false,
      "stateMutability": "nonpayable",
      "type": "function"
    },
    {
      "constant": true,
      "inputs": [
        {
          "internalType": "address",
          "name": "owner",
          "type": "address"
        }
      ],
      "name": "balanceOf",
      "outputs": [
        {
          "internalType": "uint256",
          "name": "",
          "type": "uint256"
        }
      ],
      "payable": false,
      "stateMutability": "view",
      "type": "function"
    },
    {
      "constant": true,
      "inputs": [
        {
          "internalType": "uint256",
          "name": "tokenId",
          "type": "uint256"
        }
      ],
      "name": "getApproved",
      "outputs": [
        {
          "internalType": "address",
          "name": "",
          "type": "address"
        }
      ],
      "payable": false,
      "stateMutability": "view",
      "type": "function"
    },
    {
      "constant": true,
      "inputs": [
        {
          "internalType": "address",
          "name": "owner",
          "type": "address"
        },
        {
          "internalType": "address",
          "name": "operator",
          "type": "address"
        }
      ],
      "name": "isApprovedForAll",
      "outputs": [
        {
          "internalType": "bool",
          "name": "",
          "type": "bool"
        }
      ],
      "payable": false,
      "stateMutability": "view",
      "type": "function"
    },
    {
      "constant": true,
      "inputs": [],
      "name": "name",
      "outputs": [
        {
          "internalType": "string",
          "name": "",
          "type": "string"
        }
      ],
      "payable": false,
      "stateMutability": "view",
      "type": "function"
    },
    {
      "constant": true,
      "inputs": [
        {
          "internalType": "uint256",
          "name": "tokenId",
          "type": "uint256"
        }
      ],
      "name": "ownerOf",
      "outputs": [
        {
          "internalType": "address",
          "name": "",
          "type": "address"
        }
      ],
      "payable": false,
      "stateMutability": "view",
      "type": "function"
    },
    {
      "constant": false,
      "inputs": [
        {
          "internalType": "address",
          "name": "from",
          "type": "address"
        },
        {
          "internalType": "address",
          "name": "to",
          "type": "address"
        },
        {
          "internalType": "uint256",
          "name": "tokenId",
          "type": "uint256"
        }
      ],
      "name": "safeTransferFrom",
      "outputs": [],
      "payable": false,
      "stateMutability": "nonpayable",
      "type": "function"
    },
    {
      "constant": false,
      "inputs": [
        {
          "internalType": "address",
          "name": "from",
          "type": "address"
        },
        {
          "internalType": "address",
          "name": "to",
          "type": "address"
        },
        {
          "internalType": "uint256",
          "name": "tokenId",
          "type": "uint256"
        },
        {
          "internalType": "bytes",
          "name": "_data",
          "type": "bytes"
        }
      ],
      "name": "safeTransferFrom",
      "outputs": [],
      "payable": false,
      "stateMutability": "nonpayable",
      "type": "function"
    },
    {
      "constant": false,
      "inputs": [
        {
          "internalType": "address",
          "name": "to",
          "type": "address"
        },
        {
          "internalType": "bool",
          "name": "approved",
          "type": "bool"
        }
      ],
      "name": "setApprovalForAll",
      "outputs": [],
      "payable": false,
      "stateMutability": "nonpayable",
      "type": "function"
    },
    {
      "constant": true,
      "inputs": [
        {
          "internalType": "bytes4",
          "name": "interfaceId",
          "type": "bytes4"
        }
      ],
      "name": "supportsInterface",
      "outputs": [
        {
          "internalType": "bool",
          "name": "",
          "type": "bool"
        }
      ],
      "payable": false,
      "stateMutability": "view",
      "type": "function"
    },
    {
      "constant": true,
      "inputs": [],
      "name": "symbol",
      "outputs": [
        {
          "internalType": "string",
          "name": "",
          "type": "string"
        }
      ],
      "payable": false,
      "stateMutability": "view",
      "type": "function"
    },
    {
      "constant": true,
      "inputs": [
        {
          "internalType": "uint256",
          "name": "index",
          "type": "uint256"
        }
      ],
      "name": "tokenByIndex",
      "outputs": [
        {
          "internalType": "uint256",
          "name": "",
          "type": "uint256"
        }
      ],
      "payable": false,
      "stateMutability": "view",
      "type": "function"
    },
    {
      "constant": true,
      "inputs": [
        {
          "internalType": "address",
          "name": "owner",
          "type": "address"
        },
        {
          "internalType": "uint256",
          "name": "index",
          "type": "uint256"
        }
      ],
      "name": "tokenOfOwnerByIndex",
      "outputs": [
        {
          "internalType": "uint256",
          "name": "",
          "type": "uint256"
        }
      ],
      "payable": false,
      "stateMutability": "view",
      "type": "function"
    },
    {
      "constant": true,
      "inputs": [
        {
          "internalType": "uint256",
          "name": "tokenId",
          "type": "uint256"
        }
      ],
      "name": "tokenURI",
      "outputs": [
        {
          "internalType": "string",
          "name": "",
          "type": "string"
        }
      ],
      "payable": false,
      "stateMutability": "view",
      "type": "function"
    },
    {
      "constant": true,
      "inputs": [],
      "name": "totalSupply",
      "outputs": [
        {
          "internalType": "uint256",
          "name": "",
          "type": "uint256"
        }
      ],
      "payable": false,
      "stateMutability": "view",
      "type": "function"
    },
    {
      "constant": false,
      "inputs": [
        {
          "internalType": "address",
          "name": "from",
          "type": "address"
        },
        {
          "internalType": "address",
          "name": "to",
          "type": "address"
        },
        {
          "internalType": "uint256",
          "name": "tokenId",
          "type": "uint256"
        }
      ],
      "name": "transferFrom",
      "outputs": [],
      "payable": false,
      "stateMutability": "nonpayable",
      "type": "function"
    },
    {
      "constant": false,
      "inputs": [
        {
          "internalType": "uint256",
          "name": "mathId",
          "type": "uint256"
        },
        {
          "internalType": "uint256",
          "name": "wordId",
          "type": "uint256"
        },
        {
          "internalType": "uint256",
          "name": "faceId",
          "type": "uint256"
        },
        {
          "internalType": "uint256",
          "name": "rgbId",
          "type": "uint256"
        }
      ],
      "name": "add",
      "outputs": [],
      "payable": false,
      "stateMutability": "nonpayable",
      "type": "function"
    },
    {
      "constant": true,
      "inputs": [
        {
          "internalType": "uint256",
          "name": "id",
          "type": "uint256"
        }
      ],
      "name": "get",
      "outputs": [
        {
          "internalType": "uint256",
          "name": "word",
          "type": "uint256"
        },
        {
          "internalType": "uint256",
          "name": "face",
          "type": "uint256"
        },
        {
          "internalType": "uint256",
          "name": "rgb",
          "type": "uint256"
        }
      ],
      "payable": false,
      "stateMutability": "view",
      "type": "function"
    }
  ],
  "bytecode": "0x60806040523480156200001157600080fd5b506040518060400160405280600481526020017f544f4f4e000000000000000000000000000000000000000000000000000000008152506040518060400160405280600481526020017f544f4f4e000000000000000000000000000000000000000000000000000000008152508181620000986301ffc9a760e01b6200011c60201b60201c565b620000b06380ac58cd60e01b6200011c60201b60201c565b620000c863780e9d6360e01b6200011c60201b60201c565b8160099080519060200190620000e092919062000225565b5080600a9080519060200190620000f992919062000225565b5062000112635b5e139f60e01b6200011c60201b60201c565b50505050620002d4565b63ffffffff60e01b817bffffffffffffffffffffffffffffffffffffffffffffffffffffffff19161415620001b9576040517f08c379a000000000000000000000000000000000000000000000000000000000815260040180806020018281038252601c8152602001807f4552433136353a20696e76616c696420696e746572666163652069640000000081525060200191505060405180910390fd5b6001600080837bffffffffffffffffffffffffffffffffffffffffffffffffffffffff19167bffffffffffffffffffffffffffffffffffffffffffffffffffffffff1916815260200190815260200160002060006101000a81548160ff02191690831515021790555050565b828054600181600116156101000203166002900490600052602060002090601f016020900481019282601f106200026857805160ff191683800117855562000299565b8280016001018555821562000299579182015b82811115620002985782518255916020019190600101906200027b565b5b509050620002a89190620002ac565b5090565b620002d191905b80821115620002cd576000816000905550600101620002b3565b5090565b90565b612b2c80620002e46000396000f3fe608060405234801561001057600080fd5b50600436106101425760003560e01c806370a08231116100b8578063a22cb4651161007c578063a22cb46514610700578063b88d4fde14610750578063c87b56dd14610855578063e022d77c146108fc578063e985e9c514610948578063ed6c1546146109c457610142565b806370a0823114610541578063843032cb1461059957806394876a10146105e35780639507d39a1461062d57806395d89b411461067d57610142565b806323b872dd1161010a57806323b872dd146103095780632f745c59146103775780633e26f2ce146103d957806342842e0e146104235780634f6ccce7146104915780636352211e146104d357610142565b806301ffc9a71461014757806306fdde03146101ac578063081812fc1461022f578063095ea7b31461029d57806318160ddd146102eb575b600080fd5b6101926004803603602081101561015d57600080fd5b8101908080357bffffffffffffffffffffffffffffffffffffffffffffffffffffffff19169060200190929190505050610a0e565b604051808215151515815260200191505060405180910390f35b6101b4610a75565b6040518080602001828103825283818151815260200191508051906020019080838360005b838110156101f45780820151818401526020810190506101d9565b50505050905090810190601f1680156102215780820380516001836020036101000a031916815260200191505b509250505060405180910390f35b61025b6004803603602081101561024557600080fd5b8101908080359060200190929190505050610b17565b604051808273ffffffffffffffffffffffffffffffffffffffff1673ffffffffffffffffffffffffffffffffffffffff16815260200191505060405180910390f35b6102e9600480360360408110156102b357600080fd5b81019080803573ffffffffffffffffffffffffffffffffffffffff16906020019092919080359060200190929190505050610bb2565b005b6102f3610d99565b6040518082815260200191505060405180910390f35b6103756004803603606081101561031f57600080fd5b81019080803573ffffffffffffffffffffffffffffffffffffffff169060200190929190803573ffffffffffffffffffffffffffffffffffffffff16906020019092919080359060200190929190505050610da6565b005b6103c36004803603604081101561038d57600080fd5b81019080803573ffffffffffffffffffffffffffffffffffffffff16906020019092919080359060200190929190505050610e1c565b6040518082815260200191505060405180910390f35b6103e1610edb565b604051808273ffffffffffffffffffffffffffffffffffffffff1673ffffffffffffffffffffffffffffffffffffffff16815260200191505060405180910390f35b61048f6004803603606081101561043957600080fd5b81019080803573ffffffffffffffffffffffffffffffffffffffff169060200190929190803573ffffffffffffffffffffffffffffffffffffffff16906020019092919080359060200190929190505050610ef3565b005b6104bd600480360360208110156104a757600080fd5b8101908080359060200190929190505050610f13565b6040518082815260200191505060405180910390f35b6104ff600480360360208110156104e957600080fd5b8101908080359060200190929190505050610f93565b604051808273ffffffffffffffffffffffffffffffffffffffff1673ffffffffffffffffffffffffffffffffffffffff16815260200191505060405180910390f35b6105836004803603602081101561055757600080fd5b81019080803573ffffffffffffffffffffffffffffffffffffffff16906020019092919050505061105b565b6040518082815260200191505060405180910390f35b6105a1611130565b604051808273ffffffffffffffffffffffffffffffffffffffff1673ffffffffffffffffffffffffffffffffffffffff16815260200191505060405180910390f35b6105eb611148565b604051808273ffffffffffffffffffffffffffffffffffffffff1673ffffffffffffffffffffffffffffffffffffffff16815260200191505060405180910390f35b6106596004803603602081101561064357600080fd5b8101908080359060200190929190505050611160565b60405180848152602001838152602001828152602001935050505060405180910390f35b6106856111c8565b6040518080602001828103825283818151815260200191508051906020019080838360005b838110156106c55780820151818401526020810190506106aa565b50505050905090810190601f1680156106f25780820380516001836020036101000a031916815260200191505b509250505060405180910390f35b61074e6004803603604081101561071657600080fd5b81019080803573ffffffffffffffffffffffffffffffffffffffff16906020019092919080351515906020019092919050505061126a565b005b6108536004803603608081101561076657600080fd5b81019080803573ffffffffffffffffffffffffffffffffffffffff169060200190929190803573ffffffffffffffffffffffffffffffffffffffff16906020019092919080359060200190929190803590602001906401000000008111156107cd57600080fd5b8201836020820111156107df57600080fd5b8035906020019184600183028401116401000000008311171561080157600080fd5b91908080601f016020809104026020016040519081016040528093929190818152602001838380828437600081840152601f19601f820116905080830192505050505050509192919290505050611422565b005b6108816004803603602081101561086b57600080fd5b810190808035906020019092919050505061149a565b6040518080602001828103825283818151815260200191508051906020019080838360005b838110156108c15780820151818401526020810190506108a6565b50505050905090810190601f1680156108ee5780820380516001836020036101000a031916815260200191505b509250505060405180910390f35b6109466004803603608081101561091257600080fd5b81019080803590602001909291908035906020019092919080359060200190929190803590602001909291905050506115ad565b005b6109aa6004803603604081101561095e57600080fd5b81019080803573ffffffffffffffffffffffffffffffffffffffff169060200190929190803573ffffffffffffffffffffffffffffffffffffffff169060200190929190505050611a0c565b604051808215151515815260200191505060405180910390f35b6109cc611aa0565b604051808273ffffffffffffffffffffffffffffffffffffffff1673ffffffffffffffffffffffffffffffffffffffff16815260200191505060405180910390f35b6000806000837bffffffffffffffffffffffffffffffffffffffffffffffffffffffff19167bffffffffffffffffffffffffffffffffffffffffffffffffffffffff1916815260200190815260200160002060009054906101000a900460ff169050919050565b606060098054600181600116156101000203166002900480601f016020809104026020016040519081016040528092919081815260200182805460018160011615610100020316600290048015610b0d5780601f10610ae257610100808354040283529160200191610b0d565b820191906000526020600020905b815481529060010190602001808311610af057829003601f168201915b5050505050905090565b6000610b2282611ab8565b610b77576040517f08c379a000000000000000000000000000000000000000000000000000000000815260040180806020018281038252602c8152602001806129f6602c913960400191505060405180910390fd5b6002600083815260200190815260200160002060009054906101000a900473ffffffffffffffffffffffffffffffffffffffff169050919050565b6000610bbd82610f93565b90508073ffffffffffffffffffffffffffffffffffffffff168373ffffffffffffffffffffffffffffffffffffffff161415610c44576040517f08c379a0000000000000000000000000000000000000000000000000000000008152600401808060200182810382526021815260200180612a7a6021913960400191505060405180910390fd5b8073ffffffffffffffffffffffffffffffffffffffff16610c63611b2a565b73ffffffffffffffffffffffffffffffffffffffff161480610c925750610c9181610c8c611b2a565b611a0c565b5b610ce7576040517f08c379a000000000000000000000000000000000000000000000000000000000815260040180806020018281038252603881526020018061296b6038913960400191505060405180910390fd5b826002600084815260200190815260200160002060006101000a81548173ffffffffffffffffffffffffffffffffffffffff021916908373ffffffffffffffffffffffffffffffffffffffff160217905550818373ffffffffffffffffffffffffffffffffffffffff168273ffffffffffffffffffffffffffffffffffffffff167f8c5be1e5ebec7d5bd14f71427d1e84f3dd0314c0f7b2291e5b200ac8c7c3b92560405160405180910390a4505050565b6000600780549050905090565b610db7610db1611b2a565b82611b32565b610e0c576040517f08c379a0000000000000000000000000000000000000000000000000000000008152600401808060200182810382526031815260200180612a9b6031913960400191505060405180910390fd5b610e17838383611c26565b505050565b6000610e278361105b565b8210610e7e576040517f08c379a000000000000000000000000000000000000000000000000000000000815260040180806020018281038252602b8152602001806128be602b913960400191505060405180910390fd5b600560008473ffffffffffffffffffffffffffffffffffffffff1673ffffffffffffffffffffffffffffffffffffffff1681526020019081526020016000208281548110610ec857fe5b9060005260206000200154905092915050565b7391047abf3cab8da5a9515c8750ab33b4f1560a7a81565b610f0e83838360405180602001604052806000815250611422565b505050565b6000610f1d610d99565b8210610f74576040517f08c379a000000000000000000000000000000000000000000000000000000000815260040180806020018281038252602c815260200180612acc602c913960400191505060405180910390fd5b60078281548110610f8157fe5b90600052602060002001549050919050565b6000806001600084815260200190815260200160002060009054906101000a900473ffffffffffffffffffffffffffffffffffffffff169050600073ffffffffffffffffffffffffffffffffffffffff168173ffffffffffffffffffffffffffffffffffffffff161415611052576040517f08c379a00000000000000000000000000000000000000000000000000000000081526004018080602001828103825260298152602001806129cd6029913960400191505060405180910390fd5b80915050919050565b60008073ffffffffffffffffffffffffffffffffffffffff168273ffffffffffffffffffffffffffffffffffffffff1614156110e2576040517f08c379a000000000000000000000000000000000000000000000000000000000815260040180806020018281038252602a8152602001806129a3602a913960400191505060405180910390fd5b611129600360008473ffffffffffffffffffffffffffffffffffffffff1673ffffffffffffffffffffffffffffffffffffffff168152602001908152602001600020611c4a565b9050919050565b739355fb9693fff9bb6f06721c82fe0b5f49e6c95681565b73ac1aee5027fcc98d40a26588ac0841a44f53a8fe81565b600080600061116d61284b565b600f600086815260200190815260200160002060405180606001604052908160008201548152602001600182015481526020016002820154815250509050806000015193508060200151925080604001519150509193909250565b6060600a8054600181600116156101000203166002900480601f0160208091040260200160405190810160405280929190818152602001828054600181600116156101000203166002900480156112605780601f1061123557610100808354040283529160200191611260565b820191906000526020600020905b81548152906001019060200180831161124357829003601f168201915b5050505050905090565b611272611b2a565b73ffffffffffffffffffffffffffffffffffffffff168273ffffffffffffffffffffffffffffffffffffffff161415611313576040517f08c379a00000000000000000000000000000000000000000000000000000000081526004018080602001828103825260198152602001807f4552433732313a20617070726f766520746f2063616c6c65720000000000000081525060200191505060405180910390fd5b8060046000611320611b2a565b73ffffffffffffffffffffffffffffffffffffffff1673ffffffffffffffffffffffffffffffffffffffff16815260200190815260200160002060008473ffffffffffffffffffffffffffffffffffffffff1673ffffffffffffffffffffffffffffffffffffffff16815260200190815260200160002060006101000a81548160ff0219169083151502179055508173ffffffffffffffffffffffffffffffffffffffff166113cd611b2a565b73ffffffffffffffffffffffffffffffffffffffff167f17307eab39ab6107e8899845ad3d59bd9653f200f220920489ca2b5937696c3183604051808215151515815260200191505060405180910390a35050565b61143361142d611b2a565b83611b32565b611488576040517f08c379a0000000000000000000000000000000000000000000000000000000008152600401808060200182810382526031815260200180612a9b6031913960400191505060405180910390fd5b61149484848484611c58565b50505050565b60606114a582611ab8565b6114fa576040517f08c379a000000000000000000000000000000000000000000000000000000000815260040180806020018281038252602f815260200180612a4b602f913960400191505060405180910390fd5b600b60008381526020019081526020016000208054600181600116156101000203166002900480601f0160208091040260200160405190810160405280929190818152602001828054600181600116156101000203166002900480156115a15780601f10611576576101008083540402835291602001916115a1565b820191906000526020600020905b81548152906001019060200180831161158457829003601f168201915b50505050509050919050565b3373ffffffffffffffffffffffffffffffffffffffff16736b4fccdd888bb6fd3934a9e49ef64dfd2c0d8e6d73ffffffffffffffffffffffffffffffffffffffff16636352211e866040518263ffffffff1660e01b81526004018082815260200191505060206040518083038186803b15801561162957600080fd5b505afa15801561163d573d6000803e3d6000fd5b505050506040513d602081101561165357600080fd5b810190808051906020019092919050505073ffffffffffffffffffffffffffffffffffffffff161461168457600080fd5b3373ffffffffffffffffffffffffffffffffffffffff1673ac1aee5027fcc98d40a26588ac0841a44f53a8fe73ffffffffffffffffffffffffffffffffffffffff16636352211e856040518263ffffffff1660e01b81526004018082815260200191505060206040518083038186803b15801561170057600080fd5b505afa158015611714573d6000803e3d6000fd5b505050506040513d602081101561172a57600080fd5b810190808051906020019092919050505073ffffffffffffffffffffffffffffffffffffffff161461175b57600080fd5b3373ffffffffffffffffffffffffffffffffffffffff167391047abf3cab8da5a9515c8750ab33b4f1560a7a73ffffffffffffffffffffffffffffffffffffffff16636352211e846040518263ffffffff1660e01b81526004018082815260200191505060206040518083038186803b1580156117d757600080fd5b505afa1580156117eb573d6000803e3d6000fd5b505050506040513d602081101561180157600080fd5b810190808051906020019092919050505073ffffffffffffffffffffffffffffffffffffffff161461183257600080fd5b3373ffffffffffffffffffffffffffffffffffffffff16739355fb9693fff9bb6f06721c82fe0b5f49e6c95673ffffffffffffffffffffffffffffffffffffffff16636352211e836040518263ffffffff1660e01b81526004018082815260200191505060206040518083038186803b1580156118ae57600080fd5b505afa1580156118c2573d6000803e3d6000fd5b505050506040513d60208110156118d857600080fd5b810190808051906020019092919050505073ffffffffffffffffffffffffffffffffffffffff161461190957600080fd5b6000600c6000858152602001908152602001600020541461192957600080fd5b6000600d6000848152602001908152602001600020541461194957600080fd5b6000600e6000838152602001908152602001600020541461196957600080fd5b83600e6000838152602001908152602001600020819055600d6000848152602001908152602001600020819055600c600085815260200190815260200160002081905550604051806060016040528084815260200183815260200182815250600f6000868152602001908152602001600020600082015181600001556020820151816001015560408201518160020155905050611a063385611cca565b50505050565b6000600460008473ffffffffffffffffffffffffffffffffffffffff1673ffffffffffffffffffffffffffffffffffffffff16815260200190815260200160002060008373ffffffffffffffffffffffffffffffffffffffff1673ffffffffffffffffffffffffffffffffffffffff16815260200190815260200160002060009054906101000a900460ff16905092915050565b736b4fccdd888bb6fd3934a9e49ef64dfd2c0d8e6d81565b6000806001600084815260200190815260200160002060009054906101000a900473ffffffffffffffffffffffffffffffffffffffff169050600073ffffffffffffffffffffffffffffffffffffffff168173ffffffffffffffffffffffffffffffffffffffff161415915050919050565b600033905090565b6000611b3d82611ab8565b611b92576040517f08c379a000000000000000000000000000000000000000000000000000000000815260040180806020018281038252602c81526020018061293f602c913960400191505060405180910390fd5b6000611b9d83610f93565b90508073ffffffffffffffffffffffffffffffffffffffff168473ffffffffffffffffffffffffffffffffffffffff161480611c0c57508373ffffffffffffffffffffffffffffffffffffffff16611bf484610b17565b73ffffffffffffffffffffffffffffffffffffffff16145b80611c1d5750611c1c8185611a0c565b5b91505092915050565b611c31838383611ceb565b611c3b8382611f46565b611c4582826120e4565b505050565b600081600001549050919050565b611c63848484611c26565b611c6f848484846121ab565b611cc4576040517f08c379a00000000000000000000000000000000000000000000000000000000081526004018080602001828103825260328152602001806128e96032913960400191505060405180910390fd5b50505050565b611cd4828261239b565b611cde82826120e4565b611ce7816125b3565b5050565b8273ffffffffffffffffffffffffffffffffffffffff16611d0b82610f93565b73ffffffffffffffffffffffffffffffffffffffff1614611d77576040517f08c379a0000000000000000000000000000000000000000000000000000000008152600401808060200182810382526029815260200180612a226029913960400191505060405180910390fd5b600073ffffffffffffffffffffffffffffffffffffffff168273ffffffffffffffffffffffffffffffffffffffff161415611dfd576040517f08c379a000000000000000000000000000000000000000000000000000000000815260040180806020018281038252602481526020018061291b6024913960400191505060405180910390fd5b611e06816125ff565b611e4d600360008573ffffffffffffffffffffffffffffffffffffffff1673ffffffffffffffffffffffffffffffffffffffff1681526020019081526020016000206126bd565b611e94600360008473ffffffffffffffffffffffffffffffffffffffff1673ffffffffffffffffffffffffffffffffffffffff1681526020019081526020016000206126e0565b816001600083815260200190815260200160002060006101000a81548173ffffffffffffffffffffffffffffffffffffffff021916908373ffffffffffffffffffffffffffffffffffffffff160217905550808273ffffffffffffffffffffffffffffffffffffffff168473ffffffffffffffffffffffffffffffffffffffff167fddf252ad1be2c89b69c2b068fc378daa952ba7f163c4a11628f55a4df523b3ef60405160405180910390a4505050565b6000611f9e6001600560008673ffffffffffffffffffffffffffffffffffffffff1673ffffffffffffffffffffffffffffffffffffffff168152602001908152602001600020805490506126f690919063ffffffff16565b905060006006600084815260200190815260200160002054905081811461208b576000600560008673ffffffffffffffffffffffffffffffffffffffff1673ffffffffffffffffffffffffffffffffffffffff168152602001908152602001600020838154811061200b57fe5b9060005260206000200154905080600560008773ffffffffffffffffffffffffffffffffffffffff1673ffffffffffffffffffffffffffffffffffffffff168152602001908152602001600020838154811061206357fe5b9060005260206000200181905550816006600083815260200190815260200160002081905550505b600560008573ffffffffffffffffffffffffffffffffffffffff1673ffffffffffffffffffffffffffffffffffffffff1681526020019081526020016000208054809190600190036120dd919061286c565b5050505050565b600560008373ffffffffffffffffffffffffffffffffffffffff1673ffffffffffffffffffffffffffffffffffffffff168152602001908152602001600020805490506006600083815260200190815260200160002081905550600560008373ffffffffffffffffffffffffffffffffffffffff1673ffffffffffffffffffffffffffffffffffffffff1681526020019081526020016000208190806001815401808255809150509060018203906000526020600020016000909192909190915055505050565b60006121cc8473ffffffffffffffffffffffffffffffffffffffff16612740565b6121d95760019050612393565b60008473ffffffffffffffffffffffffffffffffffffffff1663150b7a026121ff611b2a565b8887876040518563ffffffff1660e01b8152600401808573ffffffffffffffffffffffffffffffffffffffff1673ffffffffffffffffffffffffffffffffffffffff1681526020018473ffffffffffffffffffffffffffffffffffffffff1673ffffffffffffffffffffffffffffffffffffffff16815260200183815260200180602001828103825283818151815260200191508051906020019080838360005b838110156122bb5780820151818401526020810190506122a0565b50505050905090810190601f1680156122e85780820380516001836020036101000a031916815260200191505b5095505050505050602060405180830381600087803b15801561230a57600080fd5b505af115801561231e573d6000803e3d6000fd5b505050506040513d602081101561233457600080fd5b8101908080519060200190929190505050905063150b7a0260e01b7bffffffffffffffffffffffffffffffffffffffffffffffffffffffff1916817bffffffffffffffffffffffffffffffffffffffffffffffffffffffff1916149150505b949350505050565b600073ffffffffffffffffffffffffffffffffffffffff168273ffffffffffffffffffffffffffffffffffffffff16141561243e576040517f08c379a00000000000000000000000000000000000000000000000000000000081526004018080602001828103825260208152602001807f4552433732313a206d696e7420746f20746865207a65726f206164647265737381525060200191505060405180910390fd5b61244781611ab8565b156124ba576040517f08c379a000000000000000000000000000000000000000000000000000000000815260040180806020018281038252601c8152602001807f4552433732313a20746f6b656e20616c7265616479206d696e7465640000000081525060200191505060405180910390fd5b816001600083815260200190815260200160002060006101000a81548173ffffffffffffffffffffffffffffffffffffffff021916908373ffffffffffffffffffffffffffffffffffffffff160217905550612553600360008473ffffffffffffffffffffffffffffffffffffffff1673ffffffffffffffffffffffffffffffffffffffff1681526020019081526020016000206126e0565b808273ffffffffffffffffffffffffffffffffffffffff16600073ffffffffffffffffffffffffffffffffffffffff167fddf252ad1be2c89b69c2b068fc378daa952ba7f163c4a11628f55a4df523b3ef60405160405180910390a45050565b6007805490506008600083815260200190815260200160002081905550600781908060018154018082558091505090600182039060005260206000200160009091929091909150555050565b600073ffffffffffffffffffffffffffffffffffffffff166002600083815260200190815260200160002060009054906101000a900473ffffffffffffffffffffffffffffffffffffffff1673ffffffffffffffffffffffffffffffffffffffff16146126ba5760006002600083815260200190815260200160002060006101000a81548173ffffffffffffffffffffffffffffffffffffffff021916908373ffffffffffffffffffffffffffffffffffffffff1602179055505b50565b6126d5600182600001546126f690919063ffffffff16565b816000018190555050565b6001816000016000828254019250508190555050565b600061273883836040518060400160405280601e81526020017f536166654d6174683a207375627472616374696f6e206f766572666c6f77000081525061278b565b905092915050565b60008060007fc5d2460186f7233c927e7db2dcc703c0e500b653ca82273b7bfad8045d85a47060001b9050833f91506000801b82141580156127825750808214155b92505050919050565b6000838311158290612838576040517f08c379a00000000000000000000000000000000000000000000000000000000081526004018080602001828103825283818151815260200191508051906020019080838360005b838110156127fd5780820151818401526020810190506127e2565b50505050905090810190601f16801561282a5780820380516001836020036101000a031916815260200191505b509250505060405180910390fd5b5060008385039050809150509392505050565b60405180606001604052806000815260200160008152602001600081525090565b815481835581811115612893578183600052602060002091820191016128929190612898565b5b505050565b6128ba91905b808211156128b657600081600090555060010161289e565b5090565b9056fe455243373231456e756d657261626c653a206f776e657220696e646578206f7574206f6620626f756e64734552433732313a207472616e7366657220746f206e6f6e20455243373231526563656976657220696d706c656d656e7465724552433732313a207472616e7366657220746f20746865207a65726f20616464726573734552433732313a206f70657261746f7220717565727920666f72206e6f6e6578697374656e7420746f6b656e4552433732313a20617070726f76652063616c6c6572206973206e6f74206f776e6572206e6f7220617070726f76656420666f7220616c6c4552433732313a2062616c616e636520717565727920666f7220746865207a65726f20616464726573734552433732313a206f776e657220717565727920666f72206e6f6e6578697374656e7420746f6b656e4552433732313a20617070726f76656420717565727920666f72206e6f6e6578697374656e7420746f6b656e4552433732313a207472616e73666572206f6620746f6b656e2074686174206973206e6f74206f776e4552433732314d657461646174613a2055524920717565727920666f72206e6f6e6578697374656e7420746f6b656e4552433732313a20617070726f76616c20746f2063757272656e74206f776e65724552433732313a207472616e736665722063616c6c6572206973206e6f74206f776e6572206e6f7220617070726f766564455243373231456e756d657261626c653a20676c6f62616c20696e646578206f7574206f6620626f756e6473a265627a7a7231582063b163ad164ff2a37fa0f9fedeed08554eab3a6d4c882a0b26633c89d0344efa64736f6c63430005100032",
  "source": "pragma solidity ^0.5.0;\r\n\r\nimport \"@openzeppelin/contracts/token/ERC721/ERC721Full.sol\";\r\n\r\ncontract TOON is ERC721Full {\r\n\r\n    IERC721 public constant MATH = IERC721(address(0x6B4fccdd888Bb6fD3934A9e49eF64dfd2c0D8e6D));\r\n    IERC721 public constant WORD = IERC721(address(0xAc1AEe5027FCC98d40a26588aC0841a44f53A8Fe));\r\n    IERC721 public constant FACE = IERC721(address(0x91047Abf3cAb8da5A9515c8750Ab33B4f1560a7A));\r\n    IERC721 public constant RGB = IERC721(address(0x9355Fb9693ffF9bB6f06721C82fe0B5F49E6c956));\r\n\r\n    struct Metadata {\r\n        uint word;\r\n        uint face;\r\n        uint rgb;\r\n    }\r\n\r\n    mapping(uint => uint) word_to_math;\r\n    mapping(uint => uint) face_to_math;\r\n    mapping(uint => uint) rgb_to_math;\r\n    mapping(uint => Metadata) math_to_toon;\r\n\r\n    constructor() ERC721Full(\"TOON\", \"TOON\") public { }\r\n\r\n    function add(uint mathId, uint wordId, uint faceId, uint rgbId) public {\r\n        require(MATH.ownerOf(mathId) == msg.sender);\r\n        require(WORD.ownerOf(wordId) == msg.sender);\r\n        require(FACE.ownerOf(faceId) == msg.sender);\r\n        require(RGB.ownerOf(rgbId) == msg.sender);\r\n        require(word_to_math[wordId] == 0);\r\n        require(face_to_math[faceId] == 0);\r\n        require(rgb_to_math[rgbId] == 0);\r\n        word_to_math[wordId] = face_to_math[faceId] = rgb_to_math[rgbId] = mathId;\r\n        math_to_toon[mathId] = Metadata(wordId, faceId, rgbId);\r\n        _mint(msg.sender, mathId);\r\n    }\r\n\r\n    function get(uint id) external view returns (uint word, uint face, uint rgb) {\r\n        Metadata memory toon = math_to_toon[id];\r\n        word = toon.word;\r\n        face = toon.face;\r\n        rgb = toon.rgb;\r\n    }\r\n}",
  "sourcePath": "C:/Users/alexhansen/source/repos/MATH/contracts/TOON.sol",
  "compiler": {
    "name": "solc",
    "version": "0.5.16+commit.9c3226ce.Emscripten.clang"
  },
  "schemaVersion": "3.0.21",
  "updatedAt": "2020-01-24T22:38:00.564Z",
  "devdoc": {
    "methods": {
      "approve(address,uint256)": {
        "details": "Approves another address to transfer the given token ID The zero address indicates there is no approved address. There can only be one approved address per token at a given time. Can only be called by the token owner or an approved operator.",
        "params": {
          "to": "address to be approved for the given token ID",
          "tokenId": "uint256 ID of the token to be approved"
        }
      },
      "balanceOf(address)": {
        "details": "Gets the balance of the specified address.",
        "params": {
          "owner": "address to query the balance of"
        },
        "return": "uint256 representing the amount owned by the passed address"
      },
      "getApproved(uint256)": {
        "details": "Gets the approved address for a token ID, or zero if no address set Reverts if the token ID does not exist.",
        "params": {
          "tokenId": "uint256 ID of the token to query the approval of"
        },
        "return": "address currently approved for the given token ID"
      },
      "isApprovedForAll(address,address)": {
        "details": "Tells whether an operator is approved by a given owner.",
        "params": {
          "operator": "operator address which you want to query the approval of",
          "owner": "owner address which you want to query the approval of"
        },
        "return": "bool whether the given operator is approved by the given owner"
      },
      "name()": {
        "details": "Gets the token name.",
        "return": "string representing the token name"
      },
      "ownerOf(uint256)": {
        "details": "Gets the owner of the specified token ID.",
        "params": {
          "tokenId": "uint256 ID of the token to query the owner of"
        },
        "return": "address currently marked as the owner of the given token ID"
      },
      "safeTransferFrom(address,address,uint256)": {
        "details": "Safely transfers the ownership of a given token ID to another address If the target address is a contract, it must implement {IERC721Receiver-onERC721Received}, which is called upon a safe transfer, and return the magic value `bytes4(keccak256(\"onERC721Received(address,address,uint256,bytes)\"))`; otherwise, the transfer is reverted. Requires the msg.sender to be the owner, approved, or operator",
        "params": {
          "from": "current owner of the token",
          "to": "address to receive the ownership of the given token ID",
          "tokenId": "uint256 ID of the token to be transferred"
        }
      },
      "safeTransferFrom(address,address,uint256,bytes)": {
        "details": "Safely transfers the ownership of a given token ID to another address If the target address is a contract, it must implement {IERC721Receiver-onERC721Received}, which is called upon a safe transfer, and return the magic value `bytes4(keccak256(\"onERC721Received(address,address,uint256,bytes)\"))`; otherwise, the transfer is reverted. Requires the _msgSender() to be the owner, approved, or operator",
        "params": {
          "_data": "bytes data to send along with a safe transfer check",
          "from": "current owner of the token",
          "to": "address to receive the ownership of the given token ID",
          "tokenId": "uint256 ID of the token to be transferred"
        }
      },
      "setApprovalForAll(address,bool)": {
        "details": "Sets or unsets the approval of a given operator An operator is allowed to transfer all tokens of the sender on their behalf.",
        "params": {
          "approved": "representing the status of the approval to be set",
          "to": "operator address to set the approval"
        }
      },
      "supportsInterface(bytes4)": {
        "details": "See {IERC165-supportsInterface}.     * Time complexity O(1), guaranteed to always use less than 30 000 gas."
      },
      "symbol()": {
        "details": "Gets the token symbol.",
        "return": "string representing the token symbol"
      },
      "tokenByIndex(uint256)": {
        "details": "Gets the token ID at a given index of all the tokens in this contract Reverts if the index is greater or equal to the total number of tokens.",
        "params": {
          "index": "uint256 representing the index to be accessed of the tokens list"
        },
        "return": "uint256 token ID at the given index of the tokens list"
      },
      "tokenOfOwnerByIndex(address,uint256)": {
        "details": "Gets the token ID at a given index of the tokens list of the requested owner.",
        "params": {
          "index": "uint256 representing the index to be accessed of the requested tokens list",
          "owner": "address owning the tokens list to be accessed"
        },
        "return": "uint256 token ID at the given index of the tokens list owned by the requested address"
      },
      "tokenURI(uint256)": {
        "details": "Returns an URI for a given token ID. Throws if the token ID does not exist. May return an empty string.",
        "params": {
          "tokenId": "uint256 ID of the token to query"
        }
      },
      "totalSupply()": {
        "details": "Gets the total amount of tokens stored by the contract.",
        "return": "uint256 representing the total amount of tokens"
      },
      "transferFrom(address,address,uint256)": {
        "details": "Transfers the ownership of a given token ID to another address. Usage of this method is discouraged, use {safeTransferFrom} whenever possible. Requires the msg.sender to be the owner, approved, or operator.",
        "params": {
          "from": "current owner of the token",
          "to": "address to receive the ownership of the given token ID",
          "tokenId": "uint256 ID of the token to be transferred"
        }
      }
    }
  },
  "userdoc": {
    "methods": {}
  }
}